{
  "contractName": "Election",
  "abi": [
    {
      "inputs": [],
      "payable": false,
      "stateMutability": "nonpayable",
      "type": "constructor"
    },
    {
      "anonymous": false,
      "inputs": [
        {
          "indexed": false,
          "internalType": "string",
          "name": "_name",
          "type": "string"
        }
      ],
      "name": "candidateAdded",
      "type": "event"
    },
    {
      "anonymous": false,
      "inputs": [
        {
          "indexed": true,
          "internalType": "uint256",
          "name": "_candidateId",
          "type": "uint256"
        }
      ],
      "name": "votedEvent",
      "type": "event"
    },
    {
      "constant": true,
      "inputs": [],
      "name": "candidateCount",
      "outputs": [
        {
          "internalType": "uint256",
          "name": "",
          "type": "uint256"
        }
      ],
      "payable": false,
      "stateMutability": "view",
      "type": "function"
    },
    {
      "constant": true,
      "inputs": [
        {
          "internalType": "uint256",
          "name": "",
          "type": "uint256"
        }
      ],
      "name": "candidates",
      "outputs": [
        {
          "internalType": "uint256",
          "name": "id",
          "type": "uint256"
        },
        {
          "internalType": "string",
          "name": "name",
          "type": "string"
        },
        {
          "internalType": "uint256",
          "name": "votes",
          "type": "uint256"
        }
      ],
      "payable": false,
      "stateMutability": "view",
      "type": "function"
    },
    {
      "constant": true,
      "inputs": [
        {
          "internalType": "address",
          "name": "",
          "type": "address"
        }
      ],
      "name": "roles",
      "outputs": [
        {
          "internalType": "enum Election.Role",
          "name": "",
          "type": "uint8"
        }
      ],
      "payable": false,
      "stateMutability": "view",
      "type": "function"
    },
    {
      "constant": true,
      "inputs": [
        {
          "internalType": "address",
          "name": "",
          "type": "address"
        }
      ],
      "name": "voters",
      "outputs": [
        {
          "internalType": "bool",
          "name": "",
          "type": "bool"
        }
      ],
      "payable": false,
      "stateMutability": "view",
      "type": "function"
    },
    {
      "constant": false,
      "inputs": [
        {
          "internalType": "string",
          "name": "_name",
          "type": "string"
        }
      ],
      "name": "addCandidate",
      "outputs": [],
      "payable": false,
      "stateMutability": "nonpayable",
      "type": "function"
    },
    {
      "constant": false,
      "inputs": [
        {
          "internalType": "uint256",
          "name": "_candidateId",
          "type": "uint256"
        }
      ],
      "name": "vote",
      "outputs": [],
      "payable": false,
      "stateMutability": "nonpayable",
      "type": "function"
    }
  ],
  "bytecode": "0x608060405234801561001057600080fd5b5060026000803373ffffffffffffffffffffffffffffffffffffffff1673ffffffffffffffffffffffffffffffffffffffff16815260200190815260200160002060006101000a81548160ff0219169083600281111561006c57fe5b02179055506100b56040518060400160405280600a81526020017f63616e64696461746531000000000000000000000000000000000000000000008152506100fe60201b60201c565b6100f96040518060400160405280600a81526020017f63616e64696461746532000000000000000000000000000000000000000000008152506100fe60201b60201c565b61021f565b60036000815480929190600101919050555060405180606001604052806003548152602001828152602001600081525060016000600354815260200190815260200160002060008201518160000155602082015181600101908051906020019061016992919061017a565b506040820151816002015590505050565b828054600181600116156101000203166002900490600052602060002090601f016020900481019282601f106101bb57805160ff19168380011785556101e9565b828001600101855582156101e9579182015b828111156101e85782518255916020019190600101906101cd565b5b5090506101f691906101fa565b5090565b61021c91905b80821115610218576000816000905550600101610200565b5090565b90565b6108ad8061022e6000396000f3fe608060405234801561001057600080fd5b50600436106100625760003560e01c80630121b93f146100675780633477ee2e14610095578063462e91ec1461014a5780639937464214610205578063a3ec138d1461026b578063a9a981a3146102c7575b600080fd5b6100936004803603602081101561007d57600080fd5b81019080803590602001909291905050506102e5565b005b6100c1600480360360208110156100ab57600080fd5b81019080803590602001909291905050506104dd565b6040518084815260200180602001838152602001828103825284818151815260200191508051906020019080838360005b8381101561010d5780820151818401526020810190506100f2565b50505050905090810190601f16801561013a5780820380516001836020036101000a031916815260200191505b5094505050505060405180910390f35b6102036004803603602081101561016057600080fd5b810190808035906020019064010000000081111561017d57600080fd5b82018360208201111561018f57600080fd5b803590602001918460018302840111640100000000831117156101b157600080fd5b91908080601f016020809104026020016040519081016040528093929190818152602001838380828437600081840152601f19601f82011690508083019250505050505050919291929050505061059f565b005b6102476004803603602081101561021b57600080fd5b81019080803573ffffffffffffffffffffffffffffffffffffffff16906020019092919050505061078d565b6040518082600281111561025757fe5b60ff16815260200191505060405180910390f35b6102ad6004803603602081101561028157600080fd5b81019080803573ffffffffffffffffffffffffffffffffffffffff1690602001909291905050506107ad565b604051808215151515815260200191505060405180910390f35b6102cf6107cd565b6040518082815260200191505060405180910390f35b60001515600260003373ffffffffffffffffffffffffffffffffffffffff1673ffffffffffffffffffffffffffffffffffffffff16815260200190815260200160002060009054906101000a900460ff161515146103ab576040517f08c379a000000000000000000000000000000000000000000000000000000000815260040180806020018281038252600d8152602001807f766f74656420416c72656164790000000000000000000000000000000000000081525060200191505060405180910390fd5b60035481111580156103bd5750600081115b61042f576040517f08c379a00000000000000000000000000000000000000000000000000000000081526004018080602001828103825260148152602001807f496e76616c69642043616e64696461746520496400000000000000000000000081525060200191505060405180910390fd5b6001600260003373ffffffffffffffffffffffffffffffffffffffff1673ffffffffffffffffffffffffffffffffffffffff16815260200190815260200160002060006101000a81548160ff0219169083151502179055506001600082815260200190815260200160002060020160008154809291906001019190505550807ffff3c900d938d21d0990d786e819f29b8d05c1ef587b462b939609625b684b1660405160405180910390a250565b6001602052806000526040600020600091509050806000015490806001018054600181600116156101000203166002900480601f01602080910402602001604051908101604052809291908181526020018280546001816001161561010002031660029004801561058f5780601f106105645761010080835404028352916020019161058f565b820191906000526020600020905b81548152906001019060200180831161057257829003601f168201915b5050505050908060020154905083565b6002808111156105ab57fe5b6000803373ffffffffffffffffffffffffffffffffffffffff1673ffffffffffffffffffffffffffffffffffffffff16815260200190815260200160002060009054906101000a900460ff16600281111561060257fe5b14610675576040517f08c379a00000000000000000000000000000000000000000000000000000000081526004018080602001828103825260038152602001807f657272000000000000000000000000000000000000000000000000000000000081525060200191505060405180910390fd5b6003600081548092919060010191905055506040518060600160405280600354815260200182815260200160008152506001600060035481526020019081526020016000206000820151816000015560208201518160010190805190602001906106e09291906107d3565b50604082015181600201559050507f1a988ca577cdc159fc214387856e8cfb16754d59464ba15a6fb93f6ec30c9a7a816040518080602001828103825283818151815260200191508051906020019080838360005b83811015610750578082015181840152602081019050610735565b50505050905090810190601f16801561077d5780820380516001836020036101000a031916815260200191505b509250505060405180910390a150565b60006020528060005260406000206000915054906101000a900460ff1681565b60026020528060005260406000206000915054906101000a900460ff1681565b60035481565b828054600181600116156101000203166002900490600052602060002090601f016020900481019282601f1061081457805160ff1916838001178555610842565b82800160010185558215610842579182015b82811115610841578251825591602001919060010190610826565b5b50905061084f9190610853565b5090565b61087591905b80821115610871576000816000905550600101610859565b5090565b9056fea265627a7a72315820f1443f930f6de0faf81ae876bb73dc03c51e4dfc3d06851d09a5c8dd36f80b9d64736f6c63430005100032",
  "source": "pragma solidity >=0.4.2 <0.7.0;\r\ncontract Election\r\n{\r\n    struct Candidate{\r\n        uint id;\r\n        string name;\r\n        uint votes;\r\n    }\r\n     enum Role {\r\n        VOTER,\r\n        CANDIDATE,\r\n        COMMITTEE\r\n    }\r\n    mapping(address=>Role) public roles;\r\n    mapping(uint=>Candidate) public candidates;\r\n    mapping(address=>bool) public voters;\r\n    uint public candidateCount;\r\n    event votedEvent (\r\n        uint indexed _candidateId\r\n    );\r\n    event candidateAdded(\r\n        string _name\r\n    );\r\n     modifier onlyCommitte {\r\n        require(roles[msg.sender] == Role.COMMITTEE,\"err\");\r\n        _;\r\n    }\r\n    constructor() public{\r\n        roles[msg.sender] = Role.COMMITTEE;\r\n        defAddCandidate(\"candidate1\");\r\n        defAddCandidate(\"candidate2\");\r\n    }\r\n    function defAddCandidate(string memory _name) private{\r\n        candidateCount++;\r\n        candidates[candidateCount] = Candidate(candidateCount,_name,0);\r\n    }\r\n      function addCandidate (string memory _name) onlyCommitte public {\r\n        candidateCount ++;\r\n        candidates[candidateCount] = Candidate(candidateCount, _name, 0);\r\n\r\n        // emit candidate added event\r\n        emit candidateAdded(_name);\r\n    }\r\n    function vote(uint _candidateId) public{\r\n        require(voters[msg.sender]==false,\"voted Already\");\r\n        require(_candidateId<=candidateCount&&_candidateId>0,\"Invalid Candidate Id\");\r\n        voters[msg.sender] = true;\r\n        candidates[_candidateId].votes++;\r\n        emit votedEvent(_candidateId);\r\n    }\r\n\r\n}",
  "sourcePath": "C:\\Users\\Nk47\\Desktop\\eht_election\\contracts\\Election.sol",
  "compiler": {
    "name": "solc",
    "version": "0.5.16+commit.9c3226ce.Emscripten.clang"
  },
  "schemaVersion": "3.2.2",
  "updatedAt": "2020-07-16T06:32:55.793Z",
  "networkType": "ethereum",
  "devdoc": {
    "methods": {}
  },
  "userdoc": {
    "methods": {}
  }
}